:100000000C9495010C94C6010C94C6010C94C60185
:100010000C94C6010C94C6010C94C6010C94C60144
:100020000C94C6010C9417050C9417050C94170535
:100030000C94C6010C9426070C94C6010C94C601BE
:100040000C94C6010C942E0B0C94C6010C94C601A2
:100050000C94C6010C94C6010C94C6010C94FB0BC5
:100060000C94C6010C9495080C946B080C94C60172
:100070000C94C6010C94C6010C94C6010C94C601E4
:100080000C94C6010C94C6010C94C6010C94C601D4
:100090000C94C6010C94C6010C94C6010C94E503A3
:1000A0000C94C6010C94C6010C94C6010C94C601B4
:1000B0000C94C6010C94C6010C94C6010C94BF08A4
:1000C0000C94C6010C94C6010C94C6010C94410812
:1000D0000C9417080C94C6010C94ED070C94C307FC
:1000E0000C94C601FB02FE02ED02F102F702350399
:1000F000020306030C03100314031A031E03220356
:10010000350328032C033003DE09E309E809F2096B
:10011000FC09750A060A0E0A160A200A2A0A340A77
:10012000430A4D0A750A570A610A6B0A0C94200AA1
:100130000C94610A0C9457020C9430030C94071130
:100140000C9402060C94ED020C941A030C94430ACE
:100150000C9484020C94DE090C94F2090C94FB02BA
:100160000C94FE020C94B1020C940E0A0C94570AE3
:100170000C94FC060C942C030C946B0A0C942A0A25
:100180000C94160A0C94750A0C94340A0C94060309
:100190000C94A9060C941E030C9410030C940C03ED
:1001A0000C94EE050C9414030C9422030C941F0F72
:1001B0000C94B5050C944D0A0C947C020C945602D8
:1001C0000C9401070C94DF050C94FB060C941006AC
:1001D0000C9402030C9459020C94FC090C945C06D8
:1001E0000C94E3090C9435030C94F7020C94580218
:1001F0000C94E8090C9468020C9428030C94060AE9
:100200000C94F10200002100240027002A002D0098
:100210003000330001010000040107010A01000061
:100220002200250028002B002E003100340002019E
:100230000000050108010B0100002000230026003A
:1002400029002C002F0032000001000003010601EC
:10025000090105050505070508080808020202024C
:100260000A0A080804040404010101010101010152
:100270000303030303030303040707070C0C0C0C1D
:100280000C0C0C0C02020202060606060606060606
:100290000B0B0B0B0B0B0B0B010210202008081093
:1002A00020401020408002010201080402010102E6
:1002B00004081020408080402010080402018004BF
:1002C000020180402010080402010804020101021A
:1002D0000408102040800102040810204080000023
:1002E0000A0B02090C0D0E080703040100000000B0
:1002F00000000000000000000000000000000000FE
:1003000000000000000000000000121110000000BA
:1003100000000000000000000000000000000000DD
:100320000000000002001F0F071111241FBECFEFB5
:10033000D1E2DEBFCDBF00E00CBF12E0A0E0B2E032
:10034000E6EDF8E200E00BBF02C007900D92A0348A
:10035000B107D9F727E0A0E4B2E001C01D92A731B0
:10036000B207E1F711E0C4E9D1E000E006C021974F
:100370000109802FFE010E94FB11C339D10780E0E3
:100380000807A9F70E94450C0C9459140C9400001E
:1003900030914D02313208F04BC080914B028111F7
:1003A000FCCF9091280622E020934B0221E020937D
:1003B0004A022FEF2093060610920506309304069A
:1003C000E8E0F6E0A4EEB5E020E0321721F041913C
:1003D0004D932F5FFACF1092E3052091E305990F1B
:1003E000922B9093E30590914902913061F4109221
:1003F00049029091E3059093BB009091BC0093FD5E
:10040000F8CF95EC01C095EE9093BC0090914B0213
:100410009230E1F3909106069F3F79F080910606B5
:10042000803241F080910606803331F084E005C0CF
:1004300081E003C082E001C083E010924C02109280
:100440004D0210920706089585ED8093BC008091BF
:10045000BC0084FDFCCF10924B0208954091C00572
:10046000262F30E0240F311D21323105DCF420919C
:100470004B022430C9F4FC0180E090E0861758F468
:100480003091C0052191DC01A056BA4FA30FB11DD8
:100490002C930196F3CF8091C005680F6093C0053F
:1004A00080E0089581E0089582E008950895089518
:1004B0000895E091440280914302E81730F4F0E09F
:1004C000E058FA4F808190E008958FEF9FEF0895F4
:1004D0009091440280914302981750F4E92FF0E084
:1004E000E058FA4F208130E09F5F9093440202C0B1
:1004F0002FEF3FEFC90108958091430290E02091D2
:100500004402821B91090895CF92DF92EF92FF92ED
:100510000F931F93CF93DF937C01CB018A0120912E
:100520000706222389F0EB016B01C40ED51ECC1502
:10053000DD0569F06991D701ED91FC910190F081A1
:10054000E02DC7011995F3CF642F0E942E02C80138
:10055000DF91CF911F910F91FF90EF90DF90CF909F
:100560000895CF93DF931F92CDB7DEB769832091B3
:1005700007062223D1F020914D02203240F021E0E5
:1005800030E0FC013383228380E090E015C080914D
:100590004C02E82FF0E0E85FF94F998190838F5F7C
:1005A00080934C0280934D0205C061E0CE0101961C
:1005B0000E942E0281E090E00F90DF91CF9108958C
:1005C00090E0FC013197E231F10508F04EC0882738
:1005D000EE58FF4F8F4F0C94FB11809180008F7766
:1005E00003C0809180008F7D80938000089580916A
:1005F0008000877FF9CF84B58F7702C084B58F7D67
:1006000084BD08958091B0008F7703C08091B000C1
:100610008F7D8093B0000895809190008F7707C000
:10062000809190008F7D03C080919000877F8093A0
:10063000900008958091A0008F7707C08091A0005E
:100640008F7D03C08091A000877F8093A0000895D4
:10065000809120018F7707C0809120018F7D03C09A
:1006600080912001877F8093200108958F929F922F
:10067000AF92BF92CF92DF92EF92FF920E94D60B81
:100680004B015C018AE0C82ED12CE12CF12C0E9498
:10069000D60BDC01CB0188199909AA09BB09883E50
:1006A0009340A105B10598F321E0C21AD108E108F1
:1006B000F10888EE880E83E0981EA11CB11CC114BD
:1006C000D104E104F10419F7FF90EF90DF90CF908F
:1006D000BF90AF909F908F9008950F931F93CF93EB
:1006E000DF93162F072FC7E4D5E09C8521E02093E8
:1006F00007069093280610924C0210924D02AA858C
:10070000BB85ED91FC9111970190F081E02D682F50
:10071000CD0119958A859B85DC01ED91FC910190B5
:10072000F081E02D602F19958A859B85DC01ED9184
:10073000FC910190F081E02D612F1995DF91CF910F
:100740001F910F910C94C801FC01248131E030937A
:1007500007062093280610924C0210924D028485C1
:10076000682B8EE492E00E94B1020C94C8010F93B2
:100770001F93CF938C01C62F64600E94A4036C2F3B
:100780006B7FC8010E94A40383EC90E00197F1F70E
:10079000CF911F910F910895FC01A089B1898C918F
:1007A000A689B78982FD0FC09C91818D8F5F8F7361
:1007B000228D821749F0218DDF01A20FB11D5D96B8
:1007C0009C93818F08958C9108951F920F920FB67C
:1007D0000F9211240BB60F922F933F934F935F9379
:1007E0006F937F938F939F93AF93BF93EF93FF93F9
:1007F0008091B900887F803609F49CC068F5883202
:1008000009F45BC090F4803109F454C038F48823B3
:1008100009F4F6C0883009F44DC0F6C0883109F4F7
:100820004CC0803209F45DC0EFC0803409F468C068
:1008300048F4803309F455C0883309F0E5C080934B
:100840000606D8C0803509F44FC0883509F45DC06C
:10085000883409F0D9C0D6C0883909F4C7C0A8F4D3
:10086000883709F467C038F4883609F463C08037E4
:1008700009F460C0C9C0883809F4B8C0803909F4E7
:100880005FC0803809F0C0C05BC0803B09F486C0FF
:1008900038F4803A09F466C0883A09F47FC0B4C0DD
:1008A000803C09F4A7C0883C09F4A4C0883B09F443
:1008B0008AC0AAC08091E30510C09091050680917E
:1008C0000406981770F5E091050681E08E0F80937D
:1008D0000506F0E0EC51FA4F80818093BB0085EC77
:1008E00086C0809306068EC0E091050681E08E0FDB
:1008F000809305068091BB00F0E0EC51FA4F8083B5
:1009000090910506809104066EC0E091050681E095
:100910008E0F809305068091BB00F0E0EC51FA4FFA
:10092000808380914A0281116DC081E080934902E9
:1009300084EA61C083E080934B021092E205CFCF3E
:100940008091E205803208F051C0E091E20581E03B
:100950008E0F8093E2058091BB00F0E0EE53FA4FDA
:100960008083BDCF85EC8093BC0010924B028091B8
:10097000E205803230F4E091E205F0E0EE53FA4F08
:1009800010826091E20570E0E0914702F091480228
:1009900082EC95E019951092E20536C084E08093D0
:1009A0004B021092C1051092C005E0914502F091F2
:1009B000460219958091C005811105C081E08093A0
:1009C000C0051092A005E091C10581E08E0F8093D3
:1009D000C105F0E0E056FA4F80818093BB00909112
:1009E000C1058091C005981708F479CF85E88093F8
:1009F000BC000AC085EC8093BC0010924B0204C07E
:100A0000109206060E942402FF91EF91BF91AF91D0
:100A10009F918F917F916F915F914F913F912F9116
:100A20000F900BBE0F900FBE0F901F9018951F9246
:100A30000F920FB60F9211240F900FBE0F901F90C0
:100A40001895CF93DF93282F30E0F901E252FD4F44
:100A50008491F901E856FD4FD491F901EE5AFD4F0A
:100A6000C491CC2391F081110E94E002EC2FF0E0C0
:100A7000EE0FFF1FE85CFD4FA591B491EC91ED23C3
:100A800081E090E021F480E002C080E090E0DF911E
:100A9000CF9108951F93CF93DF93282F30E0F90172
:100AA000E252FD4F8491F901E856FD4FD491F901CE
:100AB000EE5AFD4FC491CC23C1F0162F81110E9434
:100AC000E002EC2FF0E0EE0FFF1FE25EFD4FA5917C
:100AD000B4919FB7F894111104C08C91D095D8238C
:100AE00002C0EC91DE2BDC939FBFDF91CF911F9171
:100AF0000895CF93DF9390E0FC01E856FD4F2491D9
:100B0000FC01EE5AFD4F8491882361F190E0880F3B
:100B1000991FFC01EC5FFD4FC591D491FC01E25E91
:100B2000FD4FA591B491611109C09FB7F8948881D8
:100B3000209582238883EC912E230BC0623061F4D0
:100B40009FB7F8948881322F309583238883EC9166
:100B50002E2B2C939FBF06C08FB7F894E8812E2BC5
:100B600028838FBFDF91CF910895CF92DF92EF92CC
:100B7000FF920F931F93CF93DF936C017A018B0148
:100B8000C0E0D0E0CE15DF0581F0D8016D918D0178
:100B9000D601ED91FC910190F081E02DC6011995EF
:100BA000892B11F02196EECF7E01C701DF91CF9105
:100BB0001F910F91FF90EF90DF90CF900895FC016F
:100BC000538D448D252F30E0842F90E0821B930BB2
:100BD000541710F0CF96089501970895FC01918D58
:100BE000828D981761F0828DDF01A80FB11D5D968F
:100BF0008C91928D9F5F9F73928F90E008958FEFFD
:100C00009FEF0895FC01918D828D981731F0828DB0
:100C1000E80FF11D858D90E008958FEF9FEF089507
:100C2000FC01918D228D892F90E0805C9F4F821B6B
:100C300091098F73992708958AE592E00E94100622
:100C400021E0892B09F420E0822F089587EF92E0BC
:100C50000E94100621E0892B09F420E0822F0895DC
:100C600084E993E00E94100621E0892B09F420E03A
:100C7000822F0895FC01848DDF01A80FB11DA35AB6
:100C8000BF4F2C91848D90E001968F739927848FAC
:100C9000A689B7892C93A089B1898C9183708064CF
:100CA0008C93938D848D981306C00288F389E02D70
:100CB00080818F7D80830895EF92FF920F931F9321
:100CC000CF93DF93EC0181E0888F9B8D8C8D9813FF
:100CD00005C0E889F989808185FD26C0F62E0B8D37
:100CE00010E00F5F1F4F0F731127E02E8C8DE8125D
:100CF0000CC00FB607FCFACFE889F989808185FF1F
:100D0000F5CFCE010E943A06F1CF8B8DFE01E80FA0
:100D1000F11DE35AFF4FF0829FB7F8940B8FEA89D9
:100D2000FB89808180620AC09FB7F894EE89FF89B1
:100D30006083E889F98980818370806480839FBFA4
:100D400081E090E0DF91CF911F910F91FF90EF90A4
:100D50000895CF93DF93EC01888D8823C9F0EA8949
:100D6000FB89808185FD05C0A889B9898C9186FDA4
:100D70000FC00FB607FCF5CF808185FFF2CFA889A1
:100D8000B9898C9185FFEDCFCE010E943A06E7CF5D
:100D9000DF91CF910895E0E0F0E0199480E090E0D9
:100DA000892B21F00E943006811119C080E090E06B
:100DB000892B41F080E090E0892B21F00E94000017
:100DC000811110C00E94260681110FC080E090E0C2
:100DD000892B81F00E941C0681110AC008950E948F
:100DE0000000E4CF0E940000EDCF0E94CB06EECFC2
:100DF0000C9400000895089580E090E008950E940A
:100E000044140F931F93CF93DF938C01C62FD62FDB
:100E1000D07FD1606D2F0E94A4036D2FC8010E9466
:100E2000B70380E1C89FB0011124C62FC1606C2FA9
:100E3000C8010E94A4036C2FC8010E94B70381E07F
:100E400090E0DF91CF911F910F9108951F920F9223
:100E50000FB60F9211240BB60F922F933F934F931F
:100E60005F936F937F938F939F93AF93BF93EF9312
:100E7000FF938091060790910707A0910807B09112
:100E80000907892B8A2B8B2B49F1909105078091BB
:100E90000000892780930000809106079091070742
:100EA000A0910807B0910907181619061A061B0623
:100EB0000CF056C08091060790910707A091080793
:100EC000B09109070197A109B10980930607909392
:100ED0000707A0930807B093090742C0809100025A
:100EE000E4E2F3E0E4919FEF90930002E230C9F076
:100EF00050F4EE2399F0E13081F590916F009D7FE1
:100F000090936F002AC0E43019F1E0F0E53029F544
:100F1000909173009D7F909373001FC010926E009C
:100F20001CC0909170009D7F9093700091E0909311
:100F3000B0009091B100987F94609093B1001092AE
:100F4000B3000BC0909171009D7F9093710005C01C
:100F5000909172009D7F9093720060E00E944A051C
:100F6000FF91EF91BF91AF919F918F917F916F9181
:100F70005F914F913F912F910F900BBE0F900FBE3D
:100F80000F901F9018951F920F920FB60F92112479
:100F90000BB60F922F933F934F935F936F937F9373
:100FA0008F939F93AF93BF93EF93FF938AE592E064
:100FB0000E943A06FF91EF91BF91AF919F918F915F
:100FC0007F916F915F914F913F912F910F900BBE49
:100FD0000F900FBE0F901F9018951F920F920FB693
:100FE0000F9211240BB60F922F933F934F935F9361
:100FF0006F937F938F939F93AF93BF93EF93FF93E1
:101000008AE592E00E94CC03FF91EF91BF91AF91EE
:101010009F918F917F916F915F914F913F912F9110
:101020000F900BBE0F900FBE0F901F9018951F9240
:101030000F920FB60F9211240BB60F922F933F937E
:101040004F935F936F937F938F939F93AF93BF93D0
:10105000EF93FF9387EF92E00E943A06FF91EF91A2
:10106000BF91AF919F918F917F916F915F914F91C0
:101070003F912F910F900BBE0F900FBE0F901F90BE
:1010800018951F920F920FB60F9211240BB60F9264
:101090002F933F934F935F936F937F938F939F9380
:1010A000AF93BF93EF93FF9387EF92E00E94CC033F
:1010B000FF91EF91BF91AF919F918F917F916F9130
:1010C0005F914F913F912F910F900BBE0F900FBEEC
:1010D0000F901F9018951F920F920FB60F92112428
:1010E0000BB60F922F933F934F935F936F937F9322
:1010F0008F939F93AF93BF93EF93FF9384E993E014
:101100000E943A06FF91EF91BF91AF919F918F910D
:101110007F916F915F914F913F912F910F900BBEF7
:101120000F900FBE0F901F9018951F920F920FB641
:101130000F9211240BB60F922F933F934F935F930F
:101140006F937F938F939F93AF93BF93EF93FF938F
:1011500084E993E00E94CC03FF91EF91BF91AF919E
:101160009F918F917F916F915F914F913F912F91BF
:101170000F900BBE0F900FBE0F901F9018951F92EF
:101180000F920FB60F9211240BB60F922F933F932D
:101190004F935F936F937F938F939F93AF93BF937F
:1011A000EF93FF93809132040E9421052091360431
:1011B000309137042F5F3F4F30933704209336042C
:1011C00090913504953618F096E090933104909103
:1011D00031049430C9F128F4923069F09330D1F0A1
:1011E0005EC0953009F451C0963009F058C091E0C6
:1011F0009093020551C0811152C020913604309164
:1012000037042436310508F442C0109202051092CA
:1012100035041CC0813009F042C0E091350491E0F2
:101220009E0F90933504F0E02091360430913704FE
:10123000EE0FFF1FEF5CFB4F3087278310923704C0
:101240001092360494E029C0811117C0E091350452
:1012500091E09E0F90933504F0E020913604309198
:101260003704EE0FFF1FEF5CFB4F30872783109290
:1012700037041092360493E010C020913604309168
:1012800037042536310558F007C0811108C0109287
:1012900037041092360403C095E090933104909186
:1012A00034049923B9F081110AC080913304882352
:1012B00021F08091330461E009C02F9A0BC0809126
:1012C0003304882331F08091330460E00E944A05A2
:1012D00001C02F98FF91EF91BF91AF919F918F9196
:1012E0007F916F915F914F913F912F910F900BBE26
:1012F0000F900FBE0F901F9018958F929F92AF92F4
:10130000BF92CF92DF92EF92FF920F931F93CF93F2
:10131000DF938C016A017B0120E030E04FE753E46A
:10132000C701B6010E9431114B015C0120E030E0A1
:10133000A9010E94391218161CF4C501B40103C09A
:10134000C501B40190580E940312EB0120E030E087
:10135000A901C701B6010E943912181614F460E001
:1013600001C061E0F80181810E944A05CF3FD105AB
:1013700009F014F4DD2702C0CFEFD0E0F8011081AE
:1013800061E0812F0E947905209709F4B1C0CF3F19
:10139000D10509F4AFC0E12FF0E0E252FD4FE49136
:1013A0008E2F90E0FC013197E231F10508F09DC0ED
:1013B0008827EC57FF4F8F4F0C94FB1184B5806842
:1013C00084BDC7BDA7C084B5806284BDC8BDA2C0AE
:1013D00080918000806880938000D0938900C093C2
:1013E000880098C080918000806280938000D093B4
:1013F0008B00C0938A008EC08091800088608093AB
:101400008000D0938D00C0938C0084C08091B00088
:1014100080688093B000C093B3007CC08091B0001E
:1014200080628093B000C093B40074C0809190003B
:10143000806880939000D0939900C09398006AC010
:1014400080919000806280939000D0939B00C09325
:101450009A0060C080919000886080939000D09343
:101460009D00C0939C0056C08091A000806880932E
:10147000A0008091A0008F7B8093A000D093A90052
:10148000C093A80047C08091A00080628093A00014
:10149000D093AB00C093AA003DC08091A0008860AB
:1014A0008093A000D093AD00C093AC0033C0809176
:1014B0002001806880932001D0932901C0932801E6
:1014C00029C080912001806280932001D0932B015C
:1014D000C0932A011FC08091200188608093200161
:1014E000D0932D01C0932C0115C0C038D10514F440
:1014F00060E001C061E0812FDF91CF911F910F91DA
:10150000FF90EF90DF90CF90BF90AF909F908F9023
:101510000C944A05DF91CF911F910F91FF90EF90AE
:10152000DF90CF90BF90AF909F908F9008958EBD29
:1015300000000DB407FEFDCF8EB50895CF93DF9365
:10154000EC0160E088810E944A0588E90E94970AC0
:1015500080E00E94970A80E00E94970A80E00E9443
:10156000970A80E00E94970A61E088810E944A05FC
:101570008BE891E00197F1F760E088810E944A05CD
:1015800080EE0E94970A61E08881DF91CF910C94F0
:101590004A05AF92BF92CF92DF92EF92FF920F93E4
:1015A0001F93CF93DF93CDB7DEB760970FB6F89454
:1015B000DEBF0FBECDBF5C0160E0FC0180810E94F8
:1015C0004A0580E60E94970A8E010F5F1F4F7E0139
:1015D000F1E1EF0EF11C680180E00E94970A90E0B3
:1015E000A0E0B0E0F60181939193A193B1936F01D4
:1015F000EE15FF0589F761E0F50180810E944A053B
:1016000080E090E0DC01F80141915191619171918C
:101610008F01BA2FA92F982F8827840F951FA61FF7
:10162000B71FEE15FF0579F79C01AD0166277727F7
:10163000CB01621B730B840B950B60960FB6F8946D
:10164000DEBF0FBECDBFDF91CF911F910F91FF90F5
:10165000EF90DF90CF90BF90AF9008951F920F92C0
:101660000FB60F9211240BB60F922F933F934F9307
:101670005F936F937F938F939F93AF93BF93EF93FA
:10168000FF938091040787FF05C010928500109298
:10169000840016C020910407022E000C330B8091A9
:1016A0003F0590E0281739075CF43091040725E0E6
:1016B0003203F0011124ED5FFA4F808186FD15C0E1
:1016C000809104078F5F8093040720910407022E06
:1016D000000C330B80913F0590E02817390794F4F4
:1016E000809104078C302CF10DC030910407320337
:1016F000F0011124ED5FFA4F808160E08F730E944A
:101700004A05DECF809184009091850084349C4905
:1017100018F480E49CE905C08091840090918500D4
:10172000049690938900809388008FEF809304073C
:101730002AC040918400509185003091040725E033
:101740003203F0011124ED5FFA4F81819281840F01
:10175000951F90938900809388003091040732038D
:10176000F0011124ED5FFA4F808186FF0CC03091AB
:1017700004073203F0011124ED5FFA4F808161E02C
:101780008F730E944A05FF91EF91BF91AF919F9196
:101790008F917F916F915F914F913F912F910F901A
:1017A0000BBE0F900FBE0F901F9018953FB7F89487
:1017B00080910F0790911007A0911107B091120727
:1017C00026B5A89B05C02F3F19F00196A11DB11D9C
:1017D0003FBFBA2FA92F982F8827820F911DA11DD7
:1017E000B11DBC01CD0142E0660F771F881F991F14
:1017F0004A95D1F708951F920F920FB60F921124B8
:101800002F933F938F939F93AF93BF9380910B0739
:1018100090910C07A0910D07B0910E0730910A0727
:1018200023E0230F2D3720F40196A11DB11D05C023
:1018300026E8230F0296A11DB11D20930A0780936D
:101840000B0790930C07A0930D07B0930E078091A0
:101850000F0790911007A0911107B0911207019600
:10186000A11DB11D80930F0790931007A09311073E
:10187000B0931207BF91AF919F918F913F912F919C
:101880000F900FBE0F901F901895789484B58260CA
:1018900084BD84B5816084BD85B5826085BD85B514
:1018A000816085BD80916E00816080936E00109292
:1018B000810080918100826080938100809181000D
:1018C000816080938100809180008160809380009E
:1018D0008091B10084608093B1008091B0008160FC
:1018E0008093B000809191008260809391008091FC
:1018F000910081608093910080919000816080933D
:1019000090008091A10082608093A1008091A1004D
:1019100081608093A1008091A00081608093A000ED
:101920008091210182608093210180912101816059
:10193000809321018091200181608093200180911A
:101940007A00846080937A0080917A00826080932C
:101950007A0080917A00816080937A0080917A0089
:10196000806880937A001092C100E091A403F09106
:10197000A50382E08083E091A003F091A10310828F
:10198000E091A203F091A3038FEC80831092AC034B
:10199000E091A803F091A90386E08083E091A6037B
:1019A000F091A703808180618083E091A603F0918C
:1019B000A703808188608083E091A603F091A7034C
:1019C000808180688083E091A603F091A7038081E5
:1019D0008F7D808361E0809148050E94790560E0F9
:1019E000809148050E944A0560E0809147050E9469
:1019F00079058EE492E09093520580935105109200
:101A000044021092430210924C0210924D02109226
:101A10004B0281E080934A021092490261E084E126
:101A20000E944A0561E085E10E944A058091B90063
:101A30008E7F8093B9008091B9008D7F8093B9002B
:101A400088E48093B80085E48093BC0086E592E04A
:101A5000909346028093450287E592E09093480276
:101A60008093470280E090E1A0E0B0E080935405CD
:101A700090935505A0935605B09357058AE090E0E2
:101A8000A0E0B0E08093580590935905A0935A05C3
:101A9000B0935B0580E090E0A0E0B0E480935C054B
:101AA00090935D05A0935E05B0935F0560E070E1E3
:101AB00085E00E946D036FE979E380E00E946D0389
:101AC000C7E4D5E08E0142E0742E57E8A52E52E01F
:101AD000B52E6DEC862E62E0962E7BECE72E77E03D
:101AE000F72EF80194818281898F9A8F61E00E949C
:101AF000790561E08A8D0E947905F80190858681DB
:101B00006E01FDE1CF0ED11C8D8F9E8F61E00E9492
:101B1000790560E08E8D0E94790561E08D8D0E94CF
:101B20004A056FB6F89480914002811126C0F501F4
:101B30008491F4012491E82FF0E0EE0FFF1FEC5F99
:101B4000FD4FA591B4919C91822F892321F461E0EE
:101B500085E30E944A0561E085E30E9479058CB522
:101B600080618CBD8CB580648CBD61E084E30E9493
:101B7000790561E083E30E947905809140028F5FDF
:101B8000809340026FBEC7010197F1F760E08D8D31
:101B90000E944A0588E80E94970A83E00E94970AFB
:101BA00061E08D8D0E944A05C7010197F1F7C601DA
:101BB0000E949E0A7A940F5F1F4F2296711091CF58
:101BC0000CE615E0C0E7D5E060E0F80181918F01F7
:101BD0000E947905F5E000371F07B1F708E615E028
:101BE00085E0E82E9CE0C92E22E0D22EF9908F816C
:101BF0008C3008F044C061E08F2D0E9479058F8100
:101C0000E89EF0011124ED5FFA4F9F2D9F73208114
:101C1000207CF22EF92AF082138214826C2D0E940D
:101C2000EF112CE0829FA001112420E030E0BA01E6
:101C3000620F731FE69EF001E79EF00D1124ED5F29
:101C4000FA4F908196FD12C02F5F3F4F2C30310527
:101C500071F781110BC010928000D0928100109218
:101C6000850010928400D6BAD0926F00EF81EE9E6C
:101C7000F0011124ED5FFA4F8081806480839D81A3
:101C80008B81F801828B938B60E00E94790561E083
:101C9000F80183890E94790560E0F80183890E9438
:101CA0004A050E5F1F4FF5E0C237DF0709F09ECFF0
:101CB000F8941092200189E08093210180E293E062
:101CC00090932901809328011092250110922401FC
:101CD00082E08093730078948093310410923504ED
:101CE0008091320460E00E94790580916D050E9428
:101CF0002105892B09F446C0C4E0D0E084E695E0D4
:101D00000E94C90A84E695E00E949E0A84E695E056
:101D10000E94C90A9B01AC0188279927DC01821B1C
:101D2000930BA40BB50B909342028093410240E0C9
:101D300050E060E07FE380E695E00E947D098091BD
:101D40004102909142028B3C9740A4F40E943603DA
:101D500084E695E00E94C90A9B01AC018827992777
:101D6000DC01821B930BA40BB50B90934202809372
:101D70004102E5CF219711F640E050E0BA0180E63C
:101D800095E058C080916C050E942105892B09F4CB
:101D900053C084E695E00E94C90A84E695E00E945B
:101DA0009E0A84E695E00E94C90A9B01AC0188273F
:101DB0009927DC01821B930BA40BB50B9093420275
:101DC0008093410240E050E060E07FE380E695E0F0
:101DD0000E947D0940E050E060E07FE382E695E00C
:101DE0000E947D09809141029091420286399F4074
:101DF000A4F40E94360384E695E00E94C90A9B0180
:101E0000AC0188279927DC01821B930BA40BB50B2F
:101E10009093420280934102E5CF40E050E0BA0146
:101E200080E695E00E947D0940E050E060E070E8C7
:101E300082E695E00E947D090E94CE0656CF109260
:101E400051021092500288EE93E0A0E0B0E080933F
:101E5000520290935302A0935402B093550223E18F
:101E600032E030934F0220934E0210925D021092A6
:101E70005C0280935E0290935F02A0936002B09335
:101E8000610225E232E030935B0220935A0245E37F
:101E900051E0509367024093660244E351E050934F
:101EA00069024093680240E351E050936B02409313
:101EB0006A0241E351E050936D0240936C0242E3A9
:101EC00051E050936F0240936E0246E351E050930D
:101ED0007102409370021092730210927402109279
:101EE0007502109276021092FA021092F902809313
:101EF000FB029093FC02A093FD02B093FE0230938C
:101F0000F8022093F70245ED50E05093040340930C
:101F1000030344ED50E0509306034093050340ED66
:101F200050E0509308034093070341ED50E0509375
:101F30000A034093090342ED50E050930C03409391
:101F40000B0346ED50E050930E0340930D031092A7
:101F500010031092110310921203109213031092A7
:101F60009703109296038093980390939903A093FC
:101F70009A03B0939B03309395032093940385ECCD
:101F800090E09093A1038093A00384EC90E0909361
:101F9000A3038093A20380EC90E09093A503809329
:101FA000A40381EC90E09093A7038093A60382ECB6
:101FB00090E09093A9038093A80386EC90E090931F
:101FC000AB038093AA031092AD031092AE0310925C
:101FD000AF031092B0038091070290910802A09184
:101FE0000902B0910A028093680590936905A09355
:101FF0006A05B0936B0580910B0290910C02A09141
:102000000D02B0910E0280936C0590936D05A09324
:102010006E05B0936F0584E08093700587E0809330
:1020200071051092720584EB8093730586E18093AD
:10203000740588E18093750587E18093760589E1D1
:1020400080937705E0913F05EC3020F08FEF80938F
:10205000780510C081E08E0F80933F05E0937805EE
:1020600085E0E89FF0011124ED5FFA4F88EB9BE0DB
:1020700092838183E0913F05EC3020F08FEF8093D5
:10208000790510C081E08E0F80933F05E0937905BC
:1020900085E0E89FF0011124ED5FFA4F88EB9BE0AB
:1020A000928381838CE08093470584E28093480586
:1020B00086E08093490585E080934A058FE180930F
:1020C0004B058EE180934C0583E280934D0582E2BF
:1020D00080934E0585E480934F0584E480935005FA
:1020E00080E4809353051092580510925905109280
:1020F0005A0510925B0510925C0510925D051092D6
:102100005E0510925F05EDE2F6E02BEE36E08FEF14
:102110009FEFDC01128213821482158216821782CD
:102120001086118683879487A587B6878787908BCB
:10213000A18BB28B12861182108273962E173F07E5
:1021400049F78DE090E00E943E12FC01138212825A
:1021500087E392E091838083118687E2848384E120
:10216000828784E083871486F0932A06E093290609
:1021700010922B0610922C0685E280933204109266
:1021800034041092410510924005109243051092BC
:102190004205109245051092440561E070E080E030
:1021A00090E00E945F13009789F09093410580931F
:1021B000400510924305109242052091440530914C
:1021C0004505232BC1F4FC01108215C08091400508
:1021D00090914105009711F00E94D612109241058E
:1021E0001092400510924505109244051092430547
:1021F00010924205089510924505109244056FE330
:1022000072E080914005909141050C9452148091A8
:102210004005909141050C94D612990F0008550F76
:10222000AA0BE0E8FEEF16161706E807F907C0F05C
:1022300012161306E407F50798F0621B730B840B64
:10224000950B39F40A2661F0232B242B252B21F43E
:1022500008950A2609F4A140A6958FEF811D811DDE
:1022600008950E9444110C94B5110E94A71138F0F2
:102270000E94AE1120F0952311F00C949E110C9445
:10228000A41111240C94E9110E94C61170F3959FBA
:10229000C1F3950F50E0551F629FF001729FBB275D
:1022A000F00DB11D639FAA27F00DB11DAA1F649FF9
:1022B0006627B00DA11D661F829F2227B00DA11DAC
:1022C000621F739FB00DA11D621F839FA00D611D32
:1022D000221F749F3327A00D611D231F849F600D53
:1022E000211D822F762F6A2F11249F5750409AF07C
:1022F000F1F088234AF0EE0FFF1FBB1F661F771F08
:10230000881F91505040A9F79E3F510580F00C94D2
:102310009E110C94E9115F3FE4F3983ED4F3869547
:1023200077956795B795F795E7959F5FC1F7FE2B72
:10233000880F911D9695879597F9089597F99F674E
:1023400080E870E060E008959FEF80EC089500243D
:102350000A941616170618060906089500240A940A
:1023600012161306140605060895092E0394000C90
:1023700011F4882352F0BB0F40F4BF2B11F460FF1F
:1023800004C06F5F7F4F8F4F9F4F089557FD905848
:10239000440F551F59F05F3F71F04795880F97FB29
:1023A000991F61F09F3F79F08795089512161306E3
:1023B0001406551FF2CF4695F1DF08C01616170612
:1023C0001806991FF1CF8695710561050894089547
:1023D000E894BB2766277727CB0197F90895991BC7
:1023E00079E004C0991F961708F0961B881F7A950C
:1023F000C9F780950895EE0FFF1F881F8BBF0790C8
:10240000F691E02D19940E940A126894B1110C946F
:10241000E91108950E94CE1188F09F5798F0B92FC6
:102420009927B751B0F0E1F0660F771F881F991F09
:102430001AF0BA95C9F714C0B13091F00E94E811B2
:10244000B1E008950C94E811672F782F8827B85FC2
:1024500039F0B93FCCF3869577956795B395D9F761
:102460003EF490958095709561957F4F8F4F9F4F6B
:1024700008950E940D1108F48FEF08950F931F9394
:10248000CF93DF938230910510F482E090E0E091E9
:102490001507F091160720E030E0A0E0B0E030979B
:1024A00019F1408151810281138148175907C8F001
:1024B0008417950769F4109731F012960C931297D0
:1024C00013961C9327C0009315071093160722C07C
:1024D0002115310519F04217530718F49A01BD016F
:1024E000EF01DF01F801DBCF21153105F9F0281BE1
:1024F000390B2430310580F48A819B816115710587
:1025000021F0FB019383828304C09093160780938C
:102510001507FE01329644C0FE01E20FF31F8193BE
:10252000919322503109398328833AC020911307AF
:1025300030911407232B41F42091030230910402BF
:102540003093140720931307209101023091020267
:102550002115310541F42DB73EB740910502509148
:102560000602241B350BE0911307F0911407E217C4
:10257000F307A0F42E1B3F0B2817390778F0AC01A6
:102580004E5F5F4F2417350748F04E0F5F1F509383
:102590001407409313078193919302C0E0E0F0E0A9
:1025A000CF01DF91CF911F910F910895CF93DF93CA
:1025B000009709F481C0FC01329713821282A09126
:1025C0001507B0911607109781F420813181820F91
:1025D000931F20911307309114072817390751F5DD
:1025E000F0931407E093130767C0ED0120E030E09B
:1025F000CE17DF0740F44A815B819E0141155105EA
:10260000F1F0EA01F5CFD383C28340815181840F79
:10261000951FC817D90759F488819981840F951F90
:102620000296918380838A819B8193838283211583
:10263000310529F4F0931607E09315073DC0E90131
:10264000FB83EA8349915991C40FD51FEC17FD070D
:1026500061F480819181840F951F0296E90199832D
:102660008883828193819B838A83E0E0F0E01296E5
:102670008D919C911397009719F0FD01DC01F7CF24
:102680008D919C9111979D012E5F3F4F820F931F5B
:1026900020911307309114072817390769F43097F0
:1026A00029F4109216071092150702C013821282A5
:1026B000B0931407A0931307DF91CF9108956F9201
:1026C0007F928F929F92AF92BF92CF92DF92EF92C2
:1026D000FF920F931F93CF93DF93009789F4CB0161
:1026E000DF91CF911F910F91FF90EF90DF90CF90EE
:1026F000BF90AF909F908F907F906F900C943E1200
:10270000FC01E60FF71F9C0122503109E217F30785
:1027100008F4A9C0EC01D9010D911C91119706177D
:102720001707B0F00530110508F49BC0C8010497E5
:102730008617970708F495C002501109061B170B5E
:10274000019311936D937C93CF010E94D61289C09F
:102750005B01A01AB10A4C01800E911EA0911507D1
:10276000B0911607612C712CE12CF12C109709F413
:1027700046C08D919C911197A815B905B1F56C01D2
:1027800042E0C40ED11CCA14DB0478F14C018A1853
:102790009B08640142E0C40ED11C1296BC901297B3
:1027A0001396AC91B5E0CB16D10440F0B282A3836E
:1027B00091828082D9016D937C9309C00E5F1F4F77
:1027C000800F911FF90191838083EB2DFA2FE11483
:1027D000F10431F0D7011396FC93EE93129741C0A8
:1027E000F0931607E09315073CC06816790608F4C5
:1027F0003C017D0112960D90BC91A02DB7CF809128
:1028000013079091140788169906E1F46616770667
:10281000C8F48091010290910202009741F48DB7B3
:102820009EB74091050250910602841B950BE81754
:10283000F907C8F4F0931407E0931307F9017183C3
:1028400060830FC0CB010E943E127C01009759F0BB
:10285000A801BE010E944914CE010E94D612C701F0
:1028600004C0CE0102C080E090E0DF91CF911F91C3
:102870000F91FF90EF90DF90CF90BF90AF909F901F
:102880008F907F906F90089581E090E0F8940C9481
:102890005914FB01DC0102C001900D9241505040DF
:1028A000D8F70895FB01DC0101900D920020E1F7BB
:1028B000089511E0C4E9D1E000E006C0802FFE01D8
:1028C0000E94FB112196011DC539D10780E0080740
:0628D000A9F7F894FFCF08
:1028D600FF000017072000363738391B1D1A1C0069
:1028E600000000B1028402FC0658027C026802590C
:1028F60002000000005C06B505DF05A9061006EE1D
:10290600050206000000000107B505FC06FB0600EF
:00000001FF
